:100000000C943E000C9448000C9448000C9448005A
:100010000C9448000C9448000C9448000C94480040
:100020000C9448000C9448000C9448000C94480030
:100030000C9448000C9448000C9448000C94480020
:100040000C9448000C9448000C9448000C94480010
:100050000C9448000C9448000C9448000C94480000
:100060000C9448000C9448000C9448000C944800F0
:100070000C9448000C9448000C94480011241FBEB6
:10008000CFEFD8E0DEBFCDBF0E944A000C94A100A4
:100090000C9400008FEF81B984B987B91AB882E057
:1000A00012B84A9BFDCF2FE73AE196E0215030404D
:1000B0009040E1F700C000004A99FECF12B84A9B79
:1000C000FDCF2FE73AE196E0215030409040E1F734
:1000D00000C000004A99FECF12B84A9BFDCF2FE71F
:1000E0003AE196E0215030409040E1F700C0000036
:1000F0004A99FECF12B84A9BFDCF2FE73AE196E02E
:10010000215030409040E1F700C000004A99FECFF6
:1001100012B84A9BFDCF2FE73AE196E021503040DC
:100120009040E1F700C000004A99FECF82B92FEF5E
:1001300039E698E1215030409040E1F700C00000DE
:06014000AFCFF894FFCFE1
:00000001FF
