:100000000C943E000C9448000C9448000C9448005A
:100010000C9448000C9448000C9448000C94480040
:100020000C9448000C9448000C9448000C94480030
:100030000C9448000C9448000C9448000C94480020
:100040000C9448000C9448000C9448000C94480010
:100050000C9448000C9448000C9448000C94480000
:100060000C9448000C9448000C9448000C944800F0
:100070000C9448000C9448000C94480011241FBEB6
:10008000CFEFD8E0DEBFCDBF0E9452000C94B90084
:100090000C940000815028F09AE19A95F1F700C085
:1000A000F9CF08958FEF81B984B987B91AB882E082
:1000B00094E115B82FEA31E144E02150304040404E
:1000C000E1F700C000009150A1F794E185B92FE558
:1000D00034E041E0215030404040E1F700C00000F2
:1000E00015B82FEA32EF40E0215030404040E1F7B0
:1000F00000C00000915051F794E185B92FEC38E031
:1001000042E0215030404040E1F700C0000015B807
:100110002FEC38E042E0215030404040E1F700C091
:100120000000915051F794E185B92FEA32EF40E099
:10013000215030404040E1F700C0000015B82FE5E5
:1001400034E041E0215030404040E1F700C0000081
:10015000915051F794E185B92FEA31E144E0215003
:1001600030404040E1F700C0000015B8915099F7C9
:060170009FCFF894FFCFC1
:00000001FF
