:100000000C943E000C9477000C9450000C9450001B
:100010000C9450000C9450000C9450000C94500020
:100020000C9450000C9450000C9450000C94500010
:100030000C9450000C9465000C9450000C945000EB
:100040000C9450000C9450000C9450000C945000F0
:100050000C9450000C9450000C9450000C945000E0
:100060000C9450000C9450000C9450000C945000D0
:100070000C9450000C9450000C94500011241FBE9E
:10008000CFEFD8E0DEBFCDBF21E0A0E0B1E001C0FE
:100090001D92A230B207E1F70E9491000C94D100AA
:1000A0000C940000109285001092840090938900B7
:1000B00080938800109280008DE0809381001092E0
:1000C000820082E080936F0008951F920F920FB616
:1000D0000F9211248F9381E080930101109200010F
:1000E000F8948F910F900FBE0F901F9018951F924C
:1000F0000F920FB60F9211248F939F938FE59AEE74
:100100000197F1F700C000001092010181E0809397
:100110000001F8949F918F910F900FBE0F901F9048
:100120001895F894109200018FEF81B984B987B9BE
:100130001AB8E89A8091690081608093690012B8CA
:100140002FEF83E294EF215080409040E1F700C010
:10015000000082E082B92FEF80E792E021508040DA
:100160009040E1F700C0000012B8789482E89EE168
:100170000E94520080910101811104C08091000110
:100180008823C1F3F89480910001813021F482B971
:1001900090E080E00895809101018130C9F782E00C
:0601A000F6CFF894FFCF3A
:00000001FF
