:100000000C943E000C9448000C9448000C9448005A
:100010000C9448000C9448000C9448000C94480040
:100020000C9448000C9448000C9448000C94480030
:100030000C9448000C9448000C9448000C94480020
:100040000C9448000C9448000C9448000C94480010
:100050000C9448000C9448000C9448000C94480000
:100060000C9448000C9448000C9448000C944800F0
:100070000C9448000C9448000C94480011241FBEB6
:10008000CFEFD8E0DEBFCDBF0E9452000C947C00C1
:100090000C940000815028F09AE19A95F1F700C085
:1000A000F9CF0895EF92FF920F931F93CF93DF93B1
:1000B0008FEF81B984B987B91AB8C0E0D8EE82E071
:1000C000F82EED2EEC1A05E010E0F2B88E2D0E940D
:1000D0004A0012B88C2F0E944A0001501109A9F75A
:1000E000CF5FC93E71F790E080E0DF91CF911F9123
:0C00F0000F91FF90EF900895F894FFCF5F
:00000001FF
