:100000000C943E000C9448000C9448000C9448005A
:100010000C9448000C9448000C9448000C94480040
:100020000C9448000C9448000C9448000C94480030
:100030000C9448000C9448000C9448000C94480020
:100040000C9448000C9448000C9448000C94480010
:100050000C9448000C9448000C9448000C94480000
:100060000C9448000C9448000C9448000C944800F0
:100070000C9448000C9448000C94480011241FBEB6
:10008000CFEFD8E0DEBFCDBF0E944A000C94B10094
:100090000C9400008FEF81B984B987B91AB880E059
:1000A00092E021E0823051F192B94A9BFDCF3FEFBF
:1000B00040E752E0315040405040E1F700C00000BE
:1000C0004A9B0DC092B9EFE0F7E23197F1F700C01B
:1000D000000022B9EFE1FEE43197F1F7EFCF81E0C4
:1000E00039B13111FCCFFFEF30E742E0F150304041
:1000F0004040E1F700C0000082B982E04A9BFECF99
:100100005FEFE0E7F2E05150E040F040E1F700C07F
:10011000000082B989B18111FDCF3FEF40E752E085
:10012000315040405040E1F700C0000012B84A9BF7
:10013000FECF8FEFE0E7F2E08150E040F040E1F7E2
:1001400000C0000022B989B18111FDCF3FEF40E727
:1001500052E0315040405040E1F700C0000092B9F9
:06016000A3CFF894FFCFCD
:00000001FF
