:100000000C943E000C9450000C9450000C94500042
:100010000C9450000C9450000C9450000C94500020
:100020000C9450000C9450000C9450000C94500010
:100030000C9450000C9450000C9450000C94500000
:100040000C9450000C9450000C9450000C945000F0
:100050000C9450000C9450000C9450000C945000E0
:100060000C9450000C9450000C9450000C945000D0
:100070000C9450000C9450000C94500011241FBE9E
:10008000CFEFD8E0DEBFCDBF21E0A0E0B1E001C0FE
:100090001D92A230B207E1F70E9465000C94B200F5
:1000A0000C94000090E0909389008093880070E0A9
:1000B00070938B0060938A0081E98093800082E0D6
:1000C000809381001092820008958FEF81B984B9E6
:1000D00087B98AB960E080E00E9452002FEF83ED7B
:1000E00090E3215080409040E1F700C0000060E4C0
:1000F00080E40E9452002FEF83ED90E32150804076
:100100009040E1F700C0000060E880E80E945200E3
:100110002FEF83ED90E3215080409040E1F700C045
:10012000000060EC80EC0E9452002FEF83ED90E322
:10013000215080409040E1F700C000006FEF8FEF4A
:100140000E9452002FEF83ED90E3215080409040B9
:10015000E1F700C0000060E080E00E94520090E003
:0801600080E00895F894FFCF40
:00000001FF
