:100000000C943E000C9477000C945B000C945B0005
:100010000C945B000C945B000C945B000C945B00F4
:100020000C945B000C945B000C945B000C945B00E4
:100030000C945B000C945B000C945B000C945B00D4
:100040000C945B000C945B000C945B000C945B00C4
:100050000C945B000C945B000C945B000C945B00B4
:100060000C945B000C945B000C945B000C945B00A4
:100070000C945B000C945B000C945B0011241FBE7D
:10008000CFEFD8E0DEBFCDBF11E0A0E0B1E0E6ECFD
:10009000F1E002C005900D92A430B107D9F721E03C
:1000A000A4E0B1E001C01D92A930B207E1F70E94BF
:1000B000DC000C94E1000C940000815028F09AE1DF
:1000C0009A95F1F700C0F9CF0895F8948FEF81B9B0
:1000D00084B987B91AB881E08AB98BB912B8E89A9D
:1000E000E9E6F0E0808181608083789408951F9232
:1000F0000F920FB60F9211242F938F939F932FEF90
:1001000082E597E0215080409040E1F700C0000078
:1001100081E08CBB80910801823061F160F488231A
:10012000F1F08130E9F19F918F912F910F900FBEE7
:100130000F901F901895843099F130F1853099F720
:100140002FEF80E792E0215080409040E1F700C01F
:1001500000008091010182B910920801E4CF109251
:1001600008018091010182B9809108018F5F80931D
:100170000801D9CF2FEF80E792E0215080409040D6
:10018000E1F700C00000EDCF2FEF80E792E02150B3
:1001900080409040E1F700C0000080910501E3CF6E
:1001A0002FEF80E792E0215080409040E1F700C0BF
:1001B000000080910001D7CF0E94650010920801D5
:0601C000FFCFF894FFCF11
:0401C600010204002E
:00000001FF
