:100000000C943E000C9448000C9448000C9448005A
:100010000C9448000C9448000C9448000C94480040
:100020000C9448000C9448000C9448000C94480030
:100030000C9448000C9448000C9448000C94480020
:100040000C9448000C9448000C9448000C94480010
:100050000C9448000C9448000C9448000C94480000
:100060000C9448000C9448000C9448000C944800F0
:100070000C9448000C9448000C94480011241FBEB6
:10008000CFEFD8E0DEBFCDBF0E944A000C94C00085
:100090000C9400008FEF81B984B987B91AB890E049
:1000A00080E032E08330910509F448C034F58130B6
:1000B000910581F08230910581F112B889B1847681
:1000C000E1F32FE78AE196E0215080409040E1F78C
:1000D00000C0000012B889B1847661F02FE78AE190
:1000E00096E0215080409040E1F700C0000082E09F
:1000F00090E0D8CF81E090E0D5CF8430910579F1C0
:100100000597D9F632B92FEF89E698E12150804062
:100110009040E1F700C00000D0CF12B829B124769A
:1001200009F4C0CF2FE78AE196E02150804090404B
:10013000E1F700C0000083E090E0B4CF12B829B12D
:10014000247609F4AFCF2FE78AE196E02150804072
:100150009040E1F700C0000084E090E0A3CF12B827
:1001600029B1247609F49ECF2FE78AE196E0215049
:1001700080409040E1F700C0000085E090E092CF21
:04018000F894FFCF21
:00000001FF
