:100000000C943E000C9448000C9448000C9448005A
:100010000C9448000C9448000C9448000C94480040
:100020000C9448000C9448000C9448000C94480030
:100030000C9448000C9448000C9448000C94480020
:100040000C9448000C9448000C9448000C94480010
:100050000C9448000C9448000C9448000C94480000
:100060000C9448000C9448000C9448000C944800F0
:100070000C9448000C9448000C94480011241FBEB6
:10008000CFEFD8E0DEBFCDBF0E944A000C94D6006F
:100090000C9400008FEF81B984B987B91AB890E049
:1000A00080E022E031E08330910509F45EC03CF548
:1000B00081309105C9F18230910509F445C022B91A
:1000C00089B18823E1F34FEF88E09DE34150804000
:1000D0009040E1F700C0000089B1882369F022B99F
:1000E0008FE19EE40197F1F700C0000032B98FE57F
:1000F0009AEE0197F1F7EECF81E090E0D4CF843013
:10010000910509F442C085309105C9F649B1411104
:10011000CACF9FEF48E08DE3915040408040E1F727
:1001200000C0000022B9CBCF89B18111E5CF9FEF8C
:1001300048E08DE3915040408040E1F700C000006E
:1001400032B982E090E0AFCF49B1442309F4ABCF9C
:100150009FEF48E08DE3915040408040E1F700C0C0
:10016000000022B983E090E09ECF49B141119BCFBE
:100170009FEF48E08DE3915040408040E1F700C0A0
:10018000000012B884E090E08ECF49B1442309F416
:100190008ACF9FEF48E08DE3915040408040E1F7E7
:1001A00000C0000032B985E090E07DCFF894FFCF29
:00000001FF
